{
  "_format": "hh-sol-artifact-1",
  "contractName": "FactoryDeployerHelper",
  "sourceName": "src/rollup/FactoryDeployerHelper.sol",
  "abi": [
    {
      "inputs": [],
      "name": "DEPLOY_HELPER",
      "outputs": [
        {
          "internalType": "address",
          "name": "",
          "type": "address"
        }
      ],
      "stateMutability": "view",
      "type": "function"
    },
    {
      "inputs": [],
      "name": "MAX_FEE_PER_GAS",
      "outputs": [
        {
          "internalType": "uint256",
          "name": "",
          "type": "uint256"
        }
      ],
      "stateMutability": "view",
      "type": "function"
    },
    {
      "inputs": [
        {
          "internalType": "address",
          "name": "inbox",
          "type": "address"
        },
        {
          "internalType": "uint256",
          "name": "maxFeePerGas",
          "type": "uint256"
        }
      ],
      "name": "deploy",
      "outputs": [],
      "stateMutability": "nonpayable",
      "type": "function"
    },
    {
      "inputs": [
        {
          "internalType": "address",
          "name": "inbox",
          "type": "address"
        }
      ],
      "name": "deploy",
      "outputs": [],
      "stateMutability": "nonpayable",
      "type": "function"
    }
  ],
  "bytecode": "0x608060405234801561001057600080fd5b5061046c806100206000396000f3fe608060405234801561001057600080fd5b506004361061004c5760003560e01c806313a694a9146100515780634956eaf01461006f5780634c96a389146100845780636d739b4214610097575b600080fd5b61005c6305f5e10081565b6040519081526020015b60405180910390f35b61008261007d36600461036a565b6100ca565b005b610082610092366004610396565b610344565b6100b27390d68b056c411015eae3ec0b98ad94e2c91419f181565b6040516001600160a01b039091168152602001610066565b6000826001600160a01b031663e78cea926040518163ffffffff1660e01b815260040160206040518083038186803b15801561010557600080fd5b505afa158015610119573d6000803e3d6000fd5b505050506040513d601f19601f8201168201806040525081019061013d91906103ba565b90506000816001600160a01b031663e1758bd86040518163ffffffff1660e01b815260040160206040518083038186803b15801561017a57600080fd5b505afa15801561018e573d6000803e3d6000fd5b505050506040513d601f19601f820116820180604052508101906101b291906103ba565b60405163566be81560e11b81526001600160a01b0386166004820152602481018590529091506000907390d68b056c411015eae3ec0b98ad94e2c91419f19063acd7d02a9060440160206040518083038186803b15801561021257600080fd5b505afa158015610226573d6000803e3d6000fd5b505050506040513d601f19601f8201168201806040525081019061024a91906103d7565b6040516323b872dd60e01b81529091506001600160a01b038316906323b872dd9061027d903390899086906004016103f0565b602060405180830381600087803b15801561029757600080fd5b505af11580156102ab573d6000803e3d6000fd5b505050506040513d601f19601f820116820180604052508101906102cf9190610414565b5060405163d7c641e760e01b81527390d68b056c411015eae3ec0b98ad94e2c91419f19063d7c641e79061030b908890869089906004016103f0565b600060405180830381600087803b15801561032557600080fd5b505af1158015610339573d6000803e3d6000fd5b505050505050505050565b610352816305f5e1006100ca565b50565b6001600160a01b038116811461035257600080fd5b6000806040838503121561037d57600080fd5b823561038881610355565b946020939093013593505050565b6000602082840312156103a857600080fd5b81356103b381610355565b9392505050565b6000602082840312156103cc57600080fd5b81516103b381610355565b6000602082840312156103e957600080fd5b5051919050565b6001600160a01b039384168152919092166020820152604081019190915260600190565b60006020828403121561042657600080fd5b815180151581146103b357600080fdfea2646970667358221220123f936eb6530b86622f6fa8d34df3c6e679b031f3928e0272aaf4cd5d9086da64736f6c63430008090033",
  "linkReferences": {},
  "deployedLinkReferences": {}
}