{
  "_format": "hh-sol-artifact-1",
  "contractName": "SimpleCacheManager",
  "sourceName": "src/mocks/SimpleCacheManager.sol",
  "abi": [
    {
      "inputs": [
        {
          "internalType": "address",
          "name": "program",
          "type": "address"
        }
      ],
      "name": "cacheProgram",
      "outputs": [],
      "stateMutability": "nonpayable",
      "type": "function"
    },
    {
      "inputs": [
        {
          "internalType": "address",
          "name": "program",
          "type": "address"
        }
      ],
      "name": "evictProgram",
      "outputs": [],
      "stateMutability": "nonpayable",
      "type": "function"
    }
  ],
  "bytecode": "0x608060405234801561001057600080fd5b5061014c806100206000396000f3fe608060405234801561001057600080fd5b50600436106100365760003560e01c80636c769c091461003b578063e73ac9f214610050575b600080fd5b61004e6100493660046100e6565b610063565b005b61004e61005e3660046100e6565b6100b9565b60405163ce97201360e01b8152813f600482015260729063ce972013906024015b600060405180830381600087803b15801561009e57600080fd5b505af11580156100b2573d6000803e3d6000fd5b5050505050565b60405163739d64f960e11b81526001600160a01b038216600482015260729063e73ac9f290602401610084565b6000602082840312156100f857600080fd5b81356001600160a01b038116811461010f57600080fd5b939250505056fea2646970667358221220b51a6d8788db1f3edf1c8949fd91357370957c416d76b32c58e4a96df4ec36e564736f6c63430008090033",
  "linkReferences": {},
  "deployedLinkReferences": {}
}