{
  "address": "0x1b78aA9A1a567Ef6d7B10Cb6a3F138547a577290",
  "abi": [
    {
      "anonymous": false,
      "inputs": [
        {
          "indexed": true,
          "internalType": "bytes32",
          "name": "rideId",
          "type": "bytes32"
        },
        {
          "indexed": true,
          "internalType": "address",
          "name": "passenger",
          "type": "address"
        }
      ],
      "name": "RideBooked",
      "type": "event"
    },
    {
      "anonymous": false,
      "inputs": [
        {
          "indexed": true,
          "internalType": "bytes32",
          "name": "rideId",
          "type": "bytes32"
        }
      ],
      "name": "RideCanceled",
      "type": "event"
    },
    {
      "anonymous": false,
      "inputs": [
        {
          "indexed": true,
          "internalType": "bytes32",
          "name": "rideId",
          "type": "bytes32"
        }
      ],
      "name": "RideCompleted",
      "type": "event"
    },
    {
      "anonymous": false,
      "inputs": [
        {
          "indexed": true,
          "internalType": "bytes32",
          "name": "rideId",
          "type": "bytes32"
        },
        {
          "indexed": true,
          "internalType": "address",
          "name": "owner",
          "type": "address"
        }
      ],
      "name": "RidePosted",
      "type": "event"
    },
    {
      "inputs": [
        {
          "internalType": "bytes32",
          "name": "rideId",
          "type": "bytes32"
        }
      ],
      "name": "bookRide",
      "outputs": [],
      "stateMutability": "nonpayable",
      "type": "function"
    },
    {
      "inputs": [
        {
          "internalType": "bytes32",
          "name": "rideId",
          "type": "bytes32"
        }
      ],
      "name": "cancelRide",
      "outputs": [],
      "stateMutability": "nonpayable",
      "type": "function"
    },
    {
      "inputs": [
        {
          "internalType": "bytes32",
          "name": "rideId",
          "type": "bytes32"
        }
      ],
      "name": "completeRide",
      "outputs": [],
      "stateMutability": "nonpayable",
      "type": "function"
    },
    {
      "inputs": [],
      "name": "getAllRides",
      "outputs": [
        {
          "components": [
            {
              "internalType": "bytes32",
              "name": "id",
              "type": "bytes32"
            },
            {
              "internalType": "enum RideManagement.RideState",
              "name": "state",
              "type": "uint8"
            },
            {
              "internalType": "address",
              "name": "owner",
              "type": "address"
            },
            {
              "internalType": "address[]",
              "name": "passengers",
              "type": "address[]"
            },
            {
              "internalType": "uint256",
              "name": "price",
              "type": "uint256"
            },
            {
              "internalType": "uint256",
              "name": "timestamp",
              "type": "uint256"
            },
            {
              "internalType": "uint256",
              "name": "totalSeats",
              "type": "uint256"
            },
            {
              "internalType": "uint256",
              "name": "availableSeats",
              "type": "uint256"
            },
            {
              "internalType": "string",
              "name": "destination",
              "type": "string"
            }
          ],
          "internalType": "struct RideManagement.Ride[]",
          "name": "",
          "type": "tuple[]"
        }
      ],
      "stateMutability": "view",
      "type": "function"
    },
    {
      "inputs": [
        {
          "internalType": "bytes32",
          "name": "rideId",
          "type": "bytes32"
        }
      ],
      "name": "getRide",
      "outputs": [
        {
          "components": [
            {
              "internalType": "bytes32",
              "name": "id",
              "type": "bytes32"
            },
            {
              "internalType": "enum RideManagement.RideState",
              "name": "state",
              "type": "uint8"
            },
            {
              "internalType": "address",
              "name": "owner",
              "type": "address"
            },
            {
              "internalType": "address[]",
              "name": "passengers",
              "type": "address[]"
            },
            {
              "internalType": "uint256",
              "name": "price",
              "type": "uint256"
            },
            {
              "internalType": "uint256",
              "name": "timestamp",
              "type": "uint256"
            },
            {
              "internalType": "uint256",
              "name": "totalSeats",
              "type": "uint256"
            },
            {
              "internalType": "uint256",
              "name": "availableSeats",
              "type": "uint256"
            },
            {
              "internalType": "string",
              "name": "destination",
              "type": "string"
            }
          ],
          "internalType": "struct RideManagement.Ride",
          "name": "",
          "type": "tuple"
        }
      ],
      "stateMutability": "view",
      "type": "function"
    },
    {
      "inputs": [
        {
          "internalType": "uint256",
          "name": "price",
          "type": "uint256"
        },
        {
          "internalType": "uint256",
          "name": "totalSeats",
          "type": "uint256"
        },
        {
          "internalType": "string",
          "name": "destination",
          "type": "string"
        }
      ],
      "name": "postRide",
      "outputs": [],
      "stateMutability": "nonpayable",
      "type": "function"
    }
  ],
  "transactionHash": "0xfd14450b4bf3c0cb7ab3a882bb7b05fd9f16cbaa6151cae85399e5c171c457e4",
  "args": [],
  "numDeployments": 1,
  "solcInputHash": "60641c203150ae3a5bb89212474bd2e1",
  "bytecode": "0x6080604052600060025534801561001557600080fd5b5061105b806100256000396000f3fe608060405234801561001057600080fd5b50600436106100625760003560e01c80636fad717014610067578063787660c314610090578063a1371cc0146100a5578063a55642c4146100ba578063b684f7bc146100cd578063b821f446146100e0575b600080fd5b61007a610075366004610bb4565b6100f3565b6040516100879190610d2a565b60405180910390f35b6100986102ff565b6040516100879190610d44565b6100b86100b3366004610bb4565b6104d2565b005b6100b86100c8366004610bb4565b610634565b6100b86100db366004610bb4565b6107a9565b6100b86100ee366004610dbc565b610931565b61014c60408051610120810190915260008082526020820190815260200160006001600160a01b031681526020016060815260200160008152602001600081526020016000815260200160008152602001606081525090565b6000828152600160205260408120548154811061016b5761016b610e80565b906000526020600020906008020160405180610120016040529081600082015481526020016001820160009054906101000a900460ff1660038111156101b3576101b3610bcd565b60038111156101c4576101c4610bcd565b8152600182015461010090046001600160a01b0316602080830191909152600283018054604080518285028101850182528281529401939283018282801561023557602002820191906000526020600020905b81546001600160a01b03168152600190910190602001808311610217575b505050505081526020016003820154815260200160048201548152602001600582015481526020016006820154815260200160078201805461027690610e96565b80601f01602080910402602001604051908101604052809291908181526020018280546102a290610e96565b80156102ef5780601f106102c4576101008083540402835291602001916102ef565b820191906000526020600020905b8154815290600101906020018083116102d257829003601f168201915b5050505050815250509050919050565b60606000805480602002602001604051908101604052809291908181526020016000905b828210156104c9578382906000526020600020906008020160405180610120016040529081600082015481526020016001820160009054906101000a900460ff16600381111561037557610375610bcd565b600381111561038657610386610bcd565b8152600182015461010090046001600160a01b031660208083019190915260028301805460408051828502810185018252828152940193928301828280156103f757602002820191906000526020600020905b81546001600160a01b031681526001909101906020018083116103d9575b505050505081526020016003820154815260200160048201548152602001600582015481526020016006820154815260200160078201805461043890610e96565b80601f016020809104026020016040519081016040528092919081815260200182805461046490610e96565b80156104b15780601f10610486576101008083540402835291602001916104b1565b820191906000526020600020905b81548152906001019060200180831161049457829003601f168201915b50505050508152505081526020019060010190610323565b50505050905090565b600081815260016020526040812054815483923392909181106104f7576104f7610e80565b600091825260209091206008909102016001015461010090046001600160a01b0316146105655760405162461bcd60e51b815260206004820152601760248201527621b0b63632b91034b9903737ba103a34329037bbb732b960491b60448201526064015b60405180910390fd5b6000828152600160205260408120548154829190811061058757610587610e80565b60009182526020909120600890910201905060018082015460ff1660038111156105b3576105b3610bcd565b146105f55760405162461bcd60e51b8152602060048201526012602482015271149a5919481a5cc81b9bdd08189bdbdad95960721b604482015260640161055c565b60018101805460ff1916600217905560405183907fc70a082468a69b6d795c167caee29e8d008b1461539c0fafb117a9d8d1ba8d9790600090a2505050565b6000818152600160205260408120548154829190811061065657610656610e80565b6000918252602082206008909102019150600182015460ff16600381111561068057610680610bcd565b146106d75760405162461bcd60e51b815260206004820152602160248201527f52696465206973206e6f7420617661696c61626c6520666f7220626f6f6b696e6044820152606760f81b606482015260840161055c565b60008160060154116107205760405162461bcd60e51b81526020600482015260126024820152714e6f20617661696c61626c6520736561747360701b604482015260640161055c565b6002810180546001810182556000918252602082200180546001600160a01b031916331790556006820180549161075683610ee6565b91905055508060060154600003610778576001818101805460ff191690911790555b604051339083907fe125dd664af84001b03624835acc7f486d9ab867f918f7ba6751cc0c5ddc472b90600090a35050565b600081815260016020526040812054815483923392909181106107ce576107ce610e80565b600091825260209091206008909102016001015461010090046001600160a01b0316146108375760405162461bcd60e51b815260206004820152601760248201527621b0b63632b91034b9903737ba103a34329037bbb732b960491b604482015260640161055c565b6000828152600160205260408120548154829190811061085957610859610e80565b6000918252602082206008909102019150600182015460ff16600381111561088357610883610bcd565b14806108a6575060018082015460ff1660038111156108a4576108a4610bcd565b145b6108f25760405162461bcd60e51b815260206004820152601760248201527f526964652063616e6e6f742062652063616e63656c6564000000000000000000604482015260640161055c565b60018101805460ff1916600317905560405183907fb10228717d68529db945de6fbc8d5ae6093d7aed82d5fde8801ab3c11666bbbe90600090a2505050565b6002546040516bffffffffffffffffffffffff193360601b166020820152426034820152605481019190915260009060740160408051808303601f190181528282528051602091820120610120840183528084526000828501819052338585015283518181529283019093529350909190606082019081526020808201889052426040830152606082018790526080820187905260a09091018590526000805460018181018355918052835160089091027f290decd9548b62a8d60345a988386fc84ba6bc95484008f6362f93160ef3e5638101918255928401517f290decd9548b62a8d60345a988386fc84ba6bc95484008f6362f93160ef3e56490930180549495508594919392909160ff191690836003811115610a5357610a53610bcd565b021790555060408201516001820180546001600160a01b0390921661010002610100600160a81b031990921691909117905560608201518051610aa0916002840191602090910190610b3a565b506080820151600382015560a0820151600482015560c0820151600582015560e082015160068201556101008201516007820190610ade9082610f4c565b5050600280546000858152600160205260408120829055909250610b018361100c565b9091555050604051339083907f247d42936ac24fb4d5819b549bfb28fb77e14df5876a19cd499c50b5269de00890600090a35050505050565b828054828255906000526020600020908101928215610b8f579160200282015b82811115610b8f57825182546001600160a01b0319166001600160a01b03909116178255602090920191600190910190610b5a565b50610b9b929150610b9f565b5090565b5b80821115610b9b5760008155600101610ba0565b600060208284031215610bc657600080fd5b5035919050565b634e487b7160e01b600052602160045260246000fd5b60048110610c0157634e487b7160e01b600052602160045260246000fd5b9052565b600081518084526020808501945080840160005b83811015610c3e5781516001600160a01b031687529582019590820190600101610c19565b509495945050505050565b6000815180845260005b81811015610c6f57602081850181015186830182015201610c53565b506000602082860101526020601f19601f83011685010191505092915050565b6000610120825184526020830151610caa6020860182610be3565b506040830151610cc560408601826001600160a01b03169052565b506060830151816060860152610cdd82860182610c05565b9150506080830151608085015260a083015160a085015260c083015160c085015260e083015160e08501526101008084015185830382870152610d208382610c49565b9695505050505050565b602081526000610d3d6020830184610c8f565b9392505050565b6000602080830181845280855180835260408601915060408160051b870101925083870160005b82811015610d9957603f19888603018452610d87858351610c8f565b94509285019290850190600101610d6b565b5092979650505050505050565b634e487b7160e01b600052604160045260246000fd5b600080600060608486031215610dd157600080fd5b8335925060208401359150604084013567ffffffffffffffff80821115610df757600080fd5b818601915086601f830112610e0b57600080fd5b813581811115610e1d57610e1d610da6565b604051601f8201601f19908116603f01168101908382118183101715610e4557610e45610da6565b81604052828152896020848701011115610e5e57600080fd5b8260208601602083013760006020848301015280955050505050509250925092565b634e487b7160e01b600052603260045260246000fd5b600181811c90821680610eaa57607f821691505b602082108103610eca57634e487b7160e01b600052602260045260246000fd5b50919050565b634e487b7160e01b600052601160045260246000fd5b600081610ef557610ef5610ed0565b506000190190565b601f821115610f4757600081815260208120601f850160051c81016020861015610f245750805b601f850160051c820191505b81811015610f4357828155600101610f30565b5050505b505050565b815167ffffffffffffffff811115610f6657610f66610da6565b610f7a81610f748454610e96565b84610efd565b602080601f831160018114610faf5760008415610f975750858301515b600019600386901b1c1916600185901b178555610f43565b600085815260208120601f198616915b82811015610fde57888601518255948401946001909101908401610fbf565b5085821015610ffc5787850151600019600388901b60f8161c191681555b5050505050600190811b01905550565b60006001820161101e5761101e610ed0565b506001019056fea26469706673582212207ef0f7af629e604dddf9a36d4f7fc54c95fdd10d9fba602678ebdd92d996409564736f6c63430008140033",
  "devdoc": {
    "details": "This contract manages rides, including their states and details. It provides functionality for posting, booking, and completing rides.",
    "kind": "dev",
    "methods": {},
    "title": "RideManagement",
    "version": 1
  },
  "userdoc": {
    "kind": "user",
    "methods": {},
    "version": 1
  },
  "storageLayout": {
    "storage": [
      {
        "astId": 412,
        "contract": "contracts/RideManagement.sol:RideManagement",
        "label": "_rides",
        "offset": 0,
        "slot": "0",
        "type": "t_array(t_struct(Ride)445_storage)dyn_storage"
      },
      {
        "astId": 416,
        "contract": "contracts/RideManagement.sol:RideManagement",
        "label": "_rideIndexMap",
        "offset": 0,
        "slot": "1",
        "type": "t_mapping(t_bytes32,t_uint256)"
      },
      {
        "astId": 419,
        "contract": "contracts/RideManagement.sol:RideManagement",
        "label": "_rideCount",
        "offset": 0,
        "slot": "2",
        "type": "t_uint256"
      }
    ],
    "types": {
      "t_address": {
        "encoding": "inplace",
        "label": "address",
        "numberOfBytes": "20"
      },
      "t_array(t_address)dyn_storage": {
        "base": "t_address",
        "encoding": "dynamic_array",
        "label": "address[]",
        "numberOfBytes": "32"
      },
      "t_array(t_struct(Ride)445_storage)dyn_storage": {
        "base": "t_struct(Ride)445_storage",
        "encoding": "dynamic_array",
        "label": "struct RideManagement.Ride[]",
        "numberOfBytes": "32"
      },
      "t_bytes32": {
        "encoding": "inplace",
        "label": "bytes32",
        "numberOfBytes": "32"
      },
      "t_enum(RideState)424": {
        "encoding": "inplace",
        "label": "enum RideManagement.RideState",
        "numberOfBytes": "1"
      },
      "t_mapping(t_bytes32,t_uint256)": {
        "encoding": "mapping",
        "key": "t_bytes32",
        "label": "mapping(bytes32 => uint256)",
        "numberOfBytes": "32",
        "value": "t_uint256"
      },
      "t_string_storage": {
        "encoding": "bytes",
        "label": "string",
        "numberOfBytes": "32"
      },
      "t_struct(Ride)445_storage": {
        "encoding": "inplace",
        "label": "struct RideManagement.Ride",
        "members": [
          {
            "astId": 426,
            "contract": "contracts/RideManagement.sol:RideManagement",
            "label": "id",
            "offset": 0,
            "slot": "0",
            "type": "t_bytes32"
          },
          {
            "astId": 429,
            "contract": "contracts/RideManagement.sol:RideManagement",
            "label": "state",
            "offset": 0,
            "slot": "1",
            "type": "t_enum(RideState)424"
          },
          {
            "astId": 431,
            "contract": "contracts/RideManagement.sol:RideManagement",
            "label": "owner",
            "offset": 1,
            "slot": "1",
            "type": "t_address"
          },
          {
            "astId": 434,
            "contract": "contracts/RideManagement.sol:RideManagement",
            "label": "passengers",
            "offset": 0,
            "slot": "2",
            "type": "t_array(t_address)dyn_storage"
          },
          {
            "astId": 436,
            "contract": "contracts/RideManagement.sol:RideManagement",
            "label": "price",
            "offset": 0,
            "slot": "3",
            "type": "t_uint256"
          },
          {
            "astId": 438,
            "contract": "contracts/RideManagement.sol:RideManagement",
            "label": "timestamp",
            "offset": 0,
            "slot": "4",
            "type": "t_uint256"
          },
          {
            "astId": 440,
            "contract": "contracts/RideManagement.sol:RideManagement",
            "label": "totalSeats",
            "offset": 0,
            "slot": "5",
            "type": "t_uint256"
          },
          {
            "astId": 442,
            "contract": "contracts/RideManagement.sol:RideManagement",
            "label": "availableSeats",
            "offset": 0,
            "slot": "6",
            "type": "t_uint256"
          },
          {
            "astId": 444,
            "contract": "contracts/RideManagement.sol:RideManagement",
            "label": "destination",
            "offset": 0,
            "slot": "7",
            "type": "t_string_storage"
          }
        ],
        "numberOfBytes": "256"
      },
      "t_uint256": {
        "encoding": "inplace",
        "label": "uint256",
        "numberOfBytes": "32"
      }
    }
  }
}