{
  "address": "0xDD6Ff5F2f0A5a2e3dB5a71D2B359fFEC21Beef7C",
  "abi": [
    {
      "anonymous": false,
      "inputs": [
        {
          "indexed": true,
          "internalType": "address",
          "name": "account",
          "type": "address"
        }
      ],
      "name": "DriverAdded",
      "type": "event"
    },
    {
      "anonymous": false,
      "inputs": [
        {
          "indexed": true,
          "internalType": "address",
          "name": "account",
          "type": "address"
        }
      ],
      "name": "DriverRemoved",
      "type": "event"
    },
    {
      "anonymous": false,
      "inputs": [
        {
          "indexed": true,
          "internalType": "address",
          "name": "account",
          "type": "address"
        }
      ],
      "name": "PassengerAdded",
      "type": "event"
    },
    {
      "anonymous": false,
      "inputs": [
        {
          "indexed": true,
          "internalType": "address",
          "name": "account",
          "type": "address"
        }
      ],
      "name": "PassengerRemoved",
      "type": "event"
    },
    {
      "inputs": [
        {
          "internalType": "uint256",
          "name": "_initialRating",
          "type": "uint256"
        },
        {
          "internalType": "string",
          "name": "_carAssetUrl",
          "type": "string"
        },
        {
          "internalType": "string",
          "name": "_profileAssetUrl",
          "type": "string"
        }
      ],
      "name": "addDriver",
      "outputs": [],
      "stateMutability": "nonpayable",
      "type": "function"
    },
    {
      "inputs": [
        {
          "internalType": "uint256",
          "name": "_initialRating",
          "type": "uint256"
        },
        {
          "internalType": "string",
          "name": "_profileAssetUrl",
          "type": "string"
        }
      ],
      "name": "addPassenger",
      "outputs": [],
      "stateMutability": "nonpayable",
      "type": "function"
    },
    {
      "inputs": [
        {
          "internalType": "address",
          "name": "account",
          "type": "address"
        }
      ],
      "name": "getDriver",
      "outputs": [
        {
          "components": [
            {
              "internalType": "bool",
              "name": "isDriver",
              "type": "bool"
            },
            {
              "internalType": "uint256",
              "name": "rating",
              "type": "uint256"
            },
            {
              "internalType": "string",
              "name": "carAssetUrl",
              "type": "string"
            },
            {
              "internalType": "string",
              "name": "infoAssetUrl",
              "type": "string"
            },
            {
              "internalType": "uint256",
              "name": "counterCourse",
              "type": "uint256"
            },
            {
              "internalType": "string",
              "name": "zkPassport",
              "type": "string"
            }
          ],
          "internalType": "struct Profile.Driver",
          "name": "",
          "type": "tuple"
        }
      ],
      "stateMutability": "view",
      "type": "function"
    },
    {
      "inputs": [
        {
          "internalType": "address",
          "name": "account",
          "type": "address"
        }
      ],
      "name": "getDriverCounter",
      "outputs": [
        {
          "internalType": "uint256",
          "name": "",
          "type": "uint256"
        }
      ],
      "stateMutability": "view",
      "type": "function"
    },
    {
      "inputs": [
        {
          "internalType": "address",
          "name": "account",
          "type": "address"
        }
      ],
      "name": "getDriverRate",
      "outputs": [
        {
          "internalType": "uint256",
          "name": "",
          "type": "uint256"
        }
      ],
      "stateMutability": "view",
      "type": "function"
    },
    {
      "inputs": [
        {
          "internalType": "address",
          "name": "account",
          "type": "address"
        }
      ],
      "name": "getPassenger",
      "outputs": [
        {
          "components": [
            {
              "internalType": "bool",
              "name": "isPassenger",
              "type": "bool"
            },
            {
              "internalType": "uint256",
              "name": "rating",
              "type": "uint256"
            },
            {
              "internalType": "string",
              "name": "infoAssetUrl",
              "type": "string"
            },
            {
              "internalType": "uint256",
              "name": "counterCourse",
              "type": "uint256"
            },
            {
              "internalType": "string",
              "name": "zkPassport",
              "type": "string"
            }
          ],
          "internalType": "struct Profile.Passenger",
          "name": "",
          "type": "tuple"
        }
      ],
      "stateMutability": "view",
      "type": "function"
    },
    {
      "inputs": [
        {
          "internalType": "address",
          "name": "account",
          "type": "address"
        }
      ],
      "name": "getPassengerCounter",
      "outputs": [
        {
          "internalType": "uint256",
          "name": "",
          "type": "uint256"
        }
      ],
      "stateMutability": "view",
      "type": "function"
    },
    {
      "inputs": [
        {
          "internalType": "address",
          "name": "account",
          "type": "address"
        }
      ],
      "name": "getPassengerRate",
      "outputs": [
        {
          "internalType": "uint256",
          "name": "",
          "type": "uint256"
        }
      ],
      "stateMutability": "view",
      "type": "function"
    },
    {
      "inputs": [
        {
          "internalType": "address",
          "name": "account",
          "type": "address"
        }
      ],
      "name": "isDriver",
      "outputs": [
        {
          "internalType": "bool",
          "name": "",
          "type": "bool"
        }
      ],
      "stateMutability": "view",
      "type": "function"
    },
    {
      "inputs": [
        {
          "internalType": "address",
          "name": "account",
          "type": "address"
        }
      ],
      "name": "isPassenger",
      "outputs": [
        {
          "internalType": "bool",
          "name": "",
          "type": "bool"
        }
      ],
      "stateMutability": "view",
      "type": "function"
    },
    {
      "inputs": [],
      "name": "removeDriver",
      "outputs": [],
      "stateMutability": "nonpayable",
      "type": "function"
    },
    {
      "inputs": [],
      "name": "removePassenger",
      "outputs": [],
      "stateMutability": "nonpayable",
      "type": "function"
    },
    {
      "inputs": [
        {
          "internalType": "uint256",
          "name": "_newRate",
          "type": "uint256"
        },
        {
          "internalType": "address",
          "name": "_account",
          "type": "address"
        },
        {
          "internalType": "bool",
          "name": "_isDriver",
          "type": "bool"
        }
      ],
      "name": "updateRate",
      "outputs": [],
      "stateMutability": "nonpayable",
      "type": "function"
    }
  ],
  "transactionHash": "0x2ba74bc13ff3d9b55ab96192dfb0b96a6004c52281df79579fd59e090a678706",
  "args": [],
  "numDeployments": 1,
  "solcInputHash": "34c2166407e6790bf73336363e5d30b2",
  "bytecode": "0x608060405234801561001057600080fd5b50611415806100206000396000f3fe608060405234801561001057600080fd5b50600436106100cf5760003560e01c8063ab9420361161008c578063d7d1911a11610066578063d7d1911a1461022e578063deda104b14610236578063e8413cf01461023e578063f2cd71501461025e57600080fd5b8063ab942036146101c3578063c38e8e1e146101ef578063cb1525161461020257600080fd5b806309285a95146100d45780631dd13a1d1461011357806365c301ab1461014f5780639dbb68221461016f578063a56f4fd914610184578063a89907a014610197575b600080fd5b6101006100e2366004610fb9565b6001600160a01b031660009081526020819052604090206004015490565b6040519081526020015b60405180910390f35b61013f610121366004610fb9565b6001600160a01b031660009081526001602052604090205460ff1690565b604051901515815260200161010a565b61016261015d366004610fb9565b61028b565b60405161010a9190611021565b61018261017d3660046110a2565b6104cb565b005b61018261019236600461118a565b6109ec565b6101006101a5366004610fb9565b6001600160a01b031660009081526001602052604090206003015490565b61013f6101d1366004610fb9565b6001600160a01b031660009081526020819052604090205460ff1690565b6101826101fd3660046111f7565b610b49565b610100610210366004610fb9565b6001600160a01b031660009081526020819052604090206001015490565b610182610c82565b610182610d50565b61025161024c366004610fb9565b610e28565b60405161010a919061123e565b61010061026c366004610fb9565b6001600160a01b03166000908152600160208190526040909120015490565b6102c66040518060c0016040528060001515815260200160008152602001606081526020016060815260200160008152602001606081525090565b6001600160a01b03821660009081526020818152604091829020825160c081018452815460ff1615158152600182015492810192909252600281018054929391929184019161031490611297565b80601f016020809104026020016040519081016040528092919081815260200182805461034090611297565b801561038d5780601f106103625761010080835404028352916020019161038d565b820191906000526020600020905b81548152906001019060200180831161037057829003601f168201915b505050505081526020016003820180546103a690611297565b80601f01602080910402602001604051908101604052809291908181526020018280546103d290611297565b801561041f5780601f106103f45761010080835404028352916020019161041f565b820191906000526020600020905b81548152906001019060200180831161040257829003601f168201915b505050505081526020016004820154815260200160058201805461044290611297565b80601f016020809104026020016040519081016040528092919081815260200182805461046e90611297565b80156104bb5780601f10610490576101008083540402835291602001916104bb565b820191906000526020600020905b81548152906001019060200180831161049e57829003601f168201915b5050505050815250509050919050565b80156107b6573360009081526001602052604090205460ff166105305760405162461bcd60e51b815260206004820152601860248201527729b2b73232b91034b9b713ba1030903830b9b9b2b733b2b960411b60448201526064015b60405180910390fd5b6001600160a01b038216600090815260208181526040808320815160c081018352815460ff1615158152600182015493810193909352600281018054919284019161057a90611297565b80601f01602080910402602001604051908101604052809291908181526020018280546105a690611297565b80156105f35780601f106105c8576101008083540402835291602001916105f3565b820191906000526020600020905b8154815290600101906020018083116105d657829003601f168201915b5050505050815260200160038201805461060c90611297565b80601f016020809104026020016040519081016040528092919081815260200182805461063890611297565b80156106855780601f1061065a57610100808354040283529160200191610685565b820191906000526020600020905b81548152906001019060200180831161066857829003601f168201915b50505050508152602001600482015481526020016005820180546106a890611297565b80601f01602080910402602001604051908101604052809291908181526020018280546106d490611297565b80156107215780601f106106f657610100808354040283529160200191610721565b820191906000526020600020905b81548152906001019060200180831161070457829003601f168201915b5050509190925250505060208181018681526001600160a01b0386166000908152918290526040918290208351815460ff1916901515178155905160018201559082015191925082916002820190610779908261131f565b506060820151600382019061078e908261131f565b506080820151600482015560a082015160058201906107ad908261131f565b50505050505050565b3360009081526020819052604090205460ff1661080d5760405162461bcd60e51b815260206004820152601560248201527429b2b73232b91034b9b713ba103090323934bb32b960591b6044820152606401610527565b6001600160a01b0382166000908152600160208181526040808420815160a081018352815460ff161515815293810154928401929092526002820180549184019161085790611297565b80601f016020809104026020016040519081016040528092919081815260200182805461088390611297565b80156108d05780601f106108a5576101008083540402835291602001916108d0565b820191906000526020600020905b8154815290600101906020018083116108b357829003601f168201915b50505050508152602001600382015481526020016004820180546108f390611297565b80601f016020809104026020016040519081016040528092919081815260200182805461091f90611297565b801561096c5780601f106109415761010080835404028352916020019161096c565b820191906000526020600020905b81548152906001019060200180831161094f57829003601f168201915b5050509190925250505060208181018681526001600160a01b03861660009081526001928390526040908190208451815460ff191690151517815591519282019290925590820151919250829160028201906109c8908261131f565b5060608201516003820155608082015160048201906107ad908261131f565b505050565b3360009081526020819052604090205460ff1615610a4c5760405162461bcd60e51b815260206004820152601a60248201527f53656e64657220697320616c72656164792061206472697665720000000000006044820152606401610527565b610a876040518060c0016040528060001515815260200160008152602001606081526020016060815260200160008152602001606081525090565b60018082526000608083018190526020808401878152604080860188815260608701889052338552928490529092208451815460ff191690151517815591519282019290925590518291906002820190610ae1908261131f565b5060608201516003820190610af6908261131f565b506080820151600482015560a08201516005820190610b15908261131f565b50506040513391507fdbbfb8e5c4472ca1cb6356990ceb7c8914641ae04bca62338db7e815c3e5b93c90600090a250505050565b3360009081526001602052604090205460ff1615610ba95760405162461bcd60e51b815260206004820152601d60248201527f53656e64657220697320616c726561647920612070617373656e6765720000006044820152606401610527565b610bdd6040518060a00160405280600015158152602001600081526020016060815260200160008152602001606081525090565b600180825260006060830181905260208084018681526040808601878152338552928590529092208451815460ff191690151517815591519282019290925590518291906002820190610c30908261131f565b506060820151600382015560808201516004820190610c4f908261131f565b50506040513391507f621e907b0b61084a1f2660c5627f80111a59ab9291ce55345a6145057946e9cc90600090a2505050565b3360009081526001602052604090205460ff16610cdc5760405162461bcd60e51b815260206004820152601860248201527729b2b73232b91034b9b713ba1030903830b9b9b2b733b2b960411b6044820152606401610527565b3360009081526001602081905260408220805460ff1916815590810182905590610d096002830182610f47565b6003820160009055600482016000610d219190610f47565b505060405133907f97444fa4b41e1f5173a20f39d2102723bc0067ea6342d82913e0b07dc7b19a3d90600090a2565b3360009081526020819052604090205460ff16610da75760405162461bcd60e51b815260206004820152601560248201527429b2b73232b91034b9b713ba103090323934bb32b960591b6044820152606401610527565b336000908152602081905260408120805460ff191681556001810182905590610dd36002830182610f47565b610de1600383016000610f47565b6004820160009055600582016000610df99190610f47565b505060405133907fe5b325d2c088e6de57ff59e6a9e91e46c56ce6c1f8d7b80e3ab7ce5b8cd7e4b690600090a2565b610e5c6040518060a00160405280600015158152602001600081526020016060815260200160008152602001606081525090565b6001600160a01b038216600090815260016020818152604092839020835160a081018552815460ff161515815292810154918301919091526002810180549293919291840191610eab90611297565b80601f0160208091040260200160405190810160405280929190818152602001828054610ed790611297565b8015610f245780601f10610ef957610100808354040283529160200191610f24565b820191906000526020600020905b815481529060010190602001808311610f0757829003601f168201915b505050505081526020016003820154815260200160048201805461044290611297565b508054610f5390611297565b6000825580601f10610f63575050565b601f016020900490600052602060002090810190610f819190610f84565b50565b5b80821115610f995760008155600101610f85565b5090565b80356001600160a01b0381168114610fb457600080fd5b919050565b600060208284031215610fcb57600080fd5b610fd482610f9d565b9392505050565b6000815180845260005b8181101561100157602081850181015186830182015201610fe5565b506000602082860101526020601f19601f83011685010191505092915050565b60208152815115156020820152602082015160408201526000604083015160c0606084015261105360e0840182610fdb565b90506060840151601f19808584030160808601526110718383610fdb565b9250608086015160a086015260a08601519150808584030160c0860152506110998282610fdb565b95945050505050565b6000806000606084860312156110b757600080fd5b833592506110c760208501610f9d565b9150604084013580151581146110dc57600080fd5b809150509250925092565b634e487b7160e01b600052604160045260246000fd5b600082601f83011261110e57600080fd5b813567ffffffffffffffff80821115611129576111296110e7565b604051601f8301601f19908116603f01168101908282118183101715611151576111516110e7565b8160405283815286602085880101111561116a57600080fd5b836020870160208301376000602085830101528094505050505092915050565b60008060006060848603121561119f57600080fd5b83359250602084013567ffffffffffffffff808211156111be57600080fd5b6111ca878388016110fd565b935060408601359150808211156111e057600080fd5b506111ed868287016110fd565b9150509250925092565b6000806040838503121561120a57600080fd5b82359150602083013567ffffffffffffffff81111561122857600080fd5b611234858286016110fd565b9150509250929050565b60208152815115156020820152602082015160408201526000604083015160a0606084015261127060c0840182610fdb565b9050606084015160808401526080840151601f198483030160a08501526110998282610fdb565b600181811c908216806112ab57607f821691505b6020821081036112cb57634e487b7160e01b600052602260045260246000fd5b50919050565b601f8211156109e757600081815260208120601f850160051c810160208610156112f85750805b601f850160051c820191505b8181101561131757828155600101611304565b505050505050565b815167ffffffffffffffff811115611339576113396110e7565b61134d816113478454611297565b846112d1565b602080601f831160018114611382576000841561136a5750858301515b600019600386901b1c1916600185901b178555611317565b600085815260208120601f198616915b828110156113b157888601518255948401946001909101908401611392565b50858210156113cf5787850151600019600388901b60f8161c191681555b5050505050600190811b0190555056fea26469706673582212200572f085384cf46a2a299d7fb0e7c54d7ee7226e67177efc89e3c1ccab3e223e64736f6c63430008140033",
  "devdoc": {
    "kind": "dev",
    "methods": {},
    "version": 1
  },
  "userdoc": {
    "kind": "user",
    "methods": {},
    "version": 1
  },
  "storageLayout": {
    "storage": [
      {
        "astId": 46,
        "contract": "contracts/Profile.sol:Profile",
        "label": "drivers",
        "offset": 0,
        "slot": "0",
        "type": "t_mapping(t_address,t_struct(Driver)14_storage)"
      },
      {
        "astId": 51,
        "contract": "contracts/Profile.sol:Profile",
        "label": "passengers",
        "offset": 0,
        "slot": "1",
        "type": "t_mapping(t_address,t_struct(Passenger)25_storage)"
      }
    ],
    "types": {
      "t_address": {
        "encoding": "inplace",
        "label": "address",
        "numberOfBytes": "20"
      },
      "t_bool": {
        "encoding": "inplace",
        "label": "bool",
        "numberOfBytes": "1"
      },
      "t_mapping(t_address,t_struct(Driver)14_storage)": {
        "encoding": "mapping",
        "key": "t_address",
        "label": "mapping(address => struct Profile.Driver)",
        "numberOfBytes": "32",
        "value": "t_struct(Driver)14_storage"
      },
      "t_mapping(t_address,t_struct(Passenger)25_storage)": {
        "encoding": "mapping",
        "key": "t_address",
        "label": "mapping(address => struct Profile.Passenger)",
        "numberOfBytes": "32",
        "value": "t_struct(Passenger)25_storage"
      },
      "t_string_storage": {
        "encoding": "bytes",
        "label": "string",
        "numberOfBytes": "32"
      },
      "t_struct(Driver)14_storage": {
        "encoding": "inplace",
        "label": "struct Profile.Driver",
        "members": [
          {
            "astId": 3,
            "contract": "contracts/Profile.sol:Profile",
            "label": "isDriver",
            "offset": 0,
            "slot": "0",
            "type": "t_bool"
          },
          {
            "astId": 5,
            "contract": "contracts/Profile.sol:Profile",
            "label": "rating",
            "offset": 0,
            "slot": "1",
            "type": "t_uint256"
          },
          {
            "astId": 7,
            "contract": "contracts/Profile.sol:Profile",
            "label": "carAssetUrl",
            "offset": 0,
            "slot": "2",
            "type": "t_string_storage"
          },
          {
            "astId": 9,
            "contract": "contracts/Profile.sol:Profile",
            "label": "infoAssetUrl",
            "offset": 0,
            "slot": "3",
            "type": "t_string_storage"
          },
          {
            "astId": 11,
            "contract": "contracts/Profile.sol:Profile",
            "label": "counterCourse",
            "offset": 0,
            "slot": "4",
            "type": "t_uint256"
          },
          {
            "astId": 13,
            "contract": "contracts/Profile.sol:Profile",
            "label": "zkPassport",
            "offset": 0,
            "slot": "5",
            "type": "t_string_storage"
          }
        ],
        "numberOfBytes": "192"
      },
      "t_struct(Passenger)25_storage": {
        "encoding": "inplace",
        "label": "struct Profile.Passenger",
        "members": [
          {
            "astId": 16,
            "contract": "contracts/Profile.sol:Profile",
            "label": "isPassenger",
            "offset": 0,
            "slot": "0",
            "type": "t_bool"
          },
          {
            "astId": 18,
            "contract": "contracts/Profile.sol:Profile",
            "label": "rating",
            "offset": 0,
            "slot": "1",
            "type": "t_uint256"
          },
          {
            "astId": 20,
            "contract": "contracts/Profile.sol:Profile",
            "label": "infoAssetUrl",
            "offset": 0,
            "slot": "2",
            "type": "t_string_storage"
          },
          {
            "astId": 22,
            "contract": "contracts/Profile.sol:Profile",
            "label": "counterCourse",
            "offset": 0,
            "slot": "3",
            "type": "t_uint256"
          },
          {
            "astId": 24,
            "contract": "contracts/Profile.sol:Profile",
            "label": "zkPassport",
            "offset": 0,
            "slot": "4",
            "type": "t_string_storage"
          }
        ],
        "numberOfBytes": "160"
      },
      "t_uint256": {
        "encoding": "inplace",
        "label": "uint256",
        "numberOfBytes": "32"
      }
    }
  }
}