{
  "address": "0xb781D1468F73022AD3d7afF71F5200fe188ce5cE",
  "abi": [
    {
      "inputs": [
        {
          "internalType": "address",
          "name": "_attestationService",
          "type": "address"
        }
      ],
      "stateMutability": "nonpayable",
      "type": "constructor"
    },
    {
      "anonymous": false,
      "inputs": [
        {
          "indexed": false,
          "internalType": "uint256",
          "name": "requestId",
          "type": "uint256"
        },
        {
          "indexed": false,
          "internalType": "uint256",
          "name": "rating",
          "type": "uint256"
        }
      ],
      "name": "RequestCompleted",
      "type": "event"
    },
    {
      "anonymous": false,
      "inputs": [
        {
          "indexed": false,
          "internalType": "uint256",
          "name": "requestId",
          "type": "uint256"
        },
        {
          "indexed": false,
          "internalType": "address",
          "name": "requester",
          "type": "address"
        },
        {
          "indexed": false,
          "internalType": "uint256",
          "name": "paymentAmount",
          "type": "uint256"
        }
      ],
      "name": "RequestCreated",
      "type": "event"
    },
    {
      "inputs": [],
      "name": "attestationService",
      "outputs": [
        {
          "internalType": "contract IAttestationService",
          "name": "",
          "type": "address"
        }
      ],
      "stateMutability": "view",
      "type": "function"
    },
    {
      "inputs": [
        {
          "internalType": "uint256",
          "name": "requestId",
          "type": "uint256"
        },
        {
          "internalType": "uint256",
          "name": "rating",
          "type": "uint256"
        }
      ],
      "name": "completeRequest",
      "outputs": [],
      "stateMutability": "nonpayable",
      "type": "function"
    },
    {
      "inputs": [
        {
          "internalType": "address",
          "name": "serviceProvider",
          "type": "address"
        },
        {
          "internalType": "uint256",
          "name": "paymentAmount",
          "type": "uint256"
        }
      ],
      "name": "createRequest",
      "outputs": [],
      "stateMutability": "nonpayable",
      "type": "function"
    },
    {
      "inputs": [
        {
          "internalType": "address",
          "name": "user",
          "type": "address"
        }
      ],
      "name": "getAverageRating",
      "outputs": [
        {
          "internalType": "uint256",
          "name": "",
          "type": "uint256"
        }
      ],
      "stateMutability": "view",
      "type": "function"
    },
    {
      "inputs": [
        {
          "internalType": "uint256",
          "name": "requestId",
          "type": "uint256"
        }
      ],
      "name": "getRequest",
      "outputs": [
        {
          "components": [
            {
              "internalType": "address",
              "name": "requester",
              "type": "address"
            },
            {
              "internalType": "address",
              "name": "serviceProvider",
              "type": "address"
            },
            {
              "internalType": "uint256",
              "name": "paymentAmount",
              "type": "uint256"
            },
            {
              "internalType": "bool",
              "name": "completed",
              "type": "bool"
            }
          ],
          "internalType": "struct TransportWithAttestationWithoutOracle.Request",
          "name": "",
          "type": "tuple"
        }
      ],
      "stateMutability": "view",
      "type": "function"
    },
    {
      "inputs": [
        {
          "internalType": "address",
          "name": "",
          "type": "address"
        }
      ],
      "name": "ratingCounts",
      "outputs": [
        {
          "internalType": "uint256",
          "name": "",
          "type": "uint256"
        }
      ],
      "stateMutability": "view",
      "type": "function"
    },
    {
      "inputs": [
        {
          "internalType": "address",
          "name": "",
          "type": "address"
        }
      ],
      "name": "ratings",
      "outputs": [
        {
          "internalType": "uint256",
          "name": "",
          "type": "uint256"
        }
      ],
      "stateMutability": "view",
      "type": "function"
    },
    {
      "inputs": [],
      "name": "requestCount",
      "outputs": [
        {
          "internalType": "uint256",
          "name": "",
          "type": "uint256"
        }
      ],
      "stateMutability": "view",
      "type": "function"
    },
    {
      "inputs": [
        {
          "internalType": "uint256",
          "name": "",
          "type": "uint256"
        }
      ],
      "name": "requests",
      "outputs": [
        {
          "internalType": "address",
          "name": "requester",
          "type": "address"
        },
        {
          "internalType": "address",
          "name": "serviceProvider",
          "type": "address"
        },
        {
          "internalType": "uint256",
          "name": "paymentAmount",
          "type": "uint256"
        },
        {
          "internalType": "bool",
          "name": "completed",
          "type": "bool"
        }
      ],
      "stateMutability": "view",
      "type": "function"
    }
  ],
  "transactionHash": "0xad201d4938cae0e87f5d773ad4edd03f9c9830a4d26bf3f39c7dd9673c880fd0",
  "args": [
    "0xf15eBd90B2E453cb96663d119380Cc9D03F04DdA"
  ],
  "numDeployments": 1,
  "solcInputHash": "2dea0d01afd6ceda766d02331e86b09e",
  "bytecode": "0x608060405234801561001057600080fd5b506040516107ce3803806107ce83398101604081905261002f91610054565b600080546001600160a01b0319166001600160a01b0392909216919091179055610084565b60006020828403121561006657600080fd5b81516001600160a01b038116811461007d57600080fd5b9392505050565b61073b806100936000396000f3fe608060405234801561001057600080fd5b50600436106100935760003560e01c80639e01dfbb116100665780639e01dfbb14610173578063c58343ef14610193578063c8b675221461025f578063edc0892514610272578063fa48f38e1461028757600080fd5b806320cb4e11146100985780632cd04700146100cb5780635badbe4c146100f657806381d12c58146100ff575b600080fd5b6100b86100a636600461061a565b60046020526000908152604090205481565b6040519081526020015b60405180910390f35b6000546100de906001600160a01b031681565b6040516001600160a01b0390911681526020016100c2565b6100b860025481565b61014661010d36600461063c565b600160208190526000918252604090912080549181015460028201546003909201546001600160a01b0393841693909116919060ff1684565b604080516001600160a01b03958616815294909316602085015291830152151560608201526080016100c2565b6100b861018136600461061a565b60036020526000908152604090205481565b61021c6101a136600461063c565b60408051608081018252600080825260208201819052918101829052606081019190915250600090815260016020818152604092839020835160808101855281546001600160a01b039081168252938201549093169183019190915260028101549282019290925260039091015460ff161515606082015290565b6040516100c2919081516001600160a01b039081168252602080840151909116908201526040808301519082015260609182015115159181019190915260800190565b6100b861026d36600461061a565b61029a565b610285610280366004610655565b6102f6565b005b61028561029536600461067f565b6103d7565b6001600160a01b03811660009081526004602052604081205481036102c157506000919050565b6001600160a01b0382166000908152600460209081526040808320546003909252909120546102f091906106b7565b92915050565b60028054906000610306836106d9565b909155505060408051608081018252338082526001600160a01b038581166020808501918252848601878152600060608088018281526002805484526001808752938b902099518a549089166001600160a01b0319918216178b559651938a018054949098169390961692909217909555905186840155516003909501805495151560ff1990961695909517909455548451908152928301919091529181018390527f0f07843fcc5047a6c0a2af35eec5eab563fa21efdc4473efb2303d6c2f8ec6f8910160405180910390a15050565b6000828152600160208190526040909120015482906001600160a01b031633146104535760405162461bcd60e51b815260206004820152602260248201527f43616c6c6572206973206e6f742074686520736572766963652070726f76696460448201526132b960f11b60648201526084015b60405180910390fd5b6000838152600160205260409020600381015460ff16156104b65760405162461bcd60e51b815260206004820152601c60248201527f5265717565737420697320616c726561647920636f6d706c6574656400000000604482015260640161044a565b6003808201805460ff191660019081179091558201546001600160a01b031660009081526020919091526040812080548592906104f49084906106f2565b909155505060018101546001600160a01b03166000908152600460205260408120805491610521836106d9565b909155505060408051858152602081018590527f732f0bd84d68e04ce71d1c4df13c0b57076171cbe967b302088d129b160091d6910160405180910390a160005460018201546040805163a3c06bfd60e01b81526001600160a01b0392831660048201526024810191909152601d60448201527f5265717565737420636f6d706c65746564207769746820726174696e67000000606482015291169063a3c06bfd90608401600060405180830381600087803b1580156105e057600080fd5b505af11580156105f4573d6000803e3d6000fd5b5050505050505050565b80356001600160a01b038116811461061557600080fd5b919050565b60006020828403121561062c57600080fd5b610635826105fe565b9392505050565b60006020828403121561064e57600080fd5b5035919050565b6000806040838503121561066857600080fd5b610671836105fe565b946020939093013593505050565b6000806040838503121561069257600080fd5b50508035926020909101359150565b634e487b7160e01b600052601160045260246000fd5b6000826106d457634e487b7160e01b600052601260045260246000fd5b500490565b6000600182016106eb576106eb6106a1565b5060010190565b808201808211156102f0576102f06106a156fea264697066735822122079dd2ace0db7d2a34b07697126b1ece3e3f59fe97fa66f7464f6778148d1d92864736f6c63430008140033",
  "devdoc": {
    "kind": "dev",
    "methods": {
      "completeRequest(uint256,uint256)": {
        "details": "Function for the service provider to complete a request.",
        "params": {
          "rating": "The rating given to the service provider.",
          "requestId": "The ID of the request to be completed."
        }
      },
      "createRequest(address,uint256)": {
        "details": "Function to create a new request.",
        "params": {
          "paymentAmount": "The amount to be paid for the service.",
          "serviceProvider": "The address of the service provider."
        }
      },
      "getAverageRating(address)": {
        "details": "Function to get the average rating of a user.",
        "params": {
          "user": "The address of the user."
        },
        "returns": {
          "_0": "The average rating of the user."
        }
      },
      "getRequest(uint256)": {
        "details": "Function to get the details of a request.",
        "params": {
          "requestId": "The ID of the request."
        },
        "returns": {
          "_0": "The details of the request."
        }
      }
    },
    "version": 1
  },
  "userdoc": {
    "kind": "user",
    "methods": {},
    "version": 1
  },
  "storageLayout": {
    "storage": [
      {
        "astId": 20,
        "contract": "contracts/TransportWithAttestationWithouOracle.sol:TransportWithAttestationWithoutOracle",
        "label": "attestationService",
        "offset": 0,
        "slot": "0",
        "type": "t_contract(IAttestationService)17"
      },
      {
        "astId": 34,
        "contract": "contracts/TransportWithAttestationWithouOracle.sol:TransportWithAttestationWithoutOracle",
        "label": "requests",
        "offset": 0,
        "slot": "1",
        "type": "t_mapping(t_uint256,t_struct(Request)29_storage)"
      },
      {
        "astId": 36,
        "contract": "contracts/TransportWithAttestationWithouOracle.sol:TransportWithAttestationWithoutOracle",
        "label": "requestCount",
        "offset": 0,
        "slot": "2",
        "type": "t_uint256"
      },
      {
        "astId": 40,
        "contract": "contracts/TransportWithAttestationWithouOracle.sol:TransportWithAttestationWithoutOracle",
        "label": "ratings",
        "offset": 0,
        "slot": "3",
        "type": "t_mapping(t_address,t_uint256)"
      },
      {
        "astId": 44,
        "contract": "contracts/TransportWithAttestationWithouOracle.sol:TransportWithAttestationWithoutOracle",
        "label": "ratingCounts",
        "offset": 0,
        "slot": "4",
        "type": "t_mapping(t_address,t_uint256)"
      }
    ],
    "types": {
      "t_address": {
        "encoding": "inplace",
        "label": "address",
        "numberOfBytes": "20"
      },
      "t_bool": {
        "encoding": "inplace",
        "label": "bool",
        "numberOfBytes": "1"
      },
      "t_contract(IAttestationService)17": {
        "encoding": "inplace",
        "label": "contract IAttestationService",
        "numberOfBytes": "20"
      },
      "t_mapping(t_address,t_uint256)": {
        "encoding": "mapping",
        "key": "t_address",
        "label": "mapping(address => uint256)",
        "numberOfBytes": "32",
        "value": "t_uint256"
      },
      "t_mapping(t_uint256,t_struct(Request)29_storage)": {
        "encoding": "mapping",
        "key": "t_uint256",
        "label": "mapping(uint256 => struct TransportWithAttestationWithoutOracle.Request)",
        "numberOfBytes": "32",
        "value": "t_struct(Request)29_storage"
      },
      "t_struct(Request)29_storage": {
        "encoding": "inplace",
        "label": "struct TransportWithAttestationWithoutOracle.Request",
        "members": [
          {
            "astId": 22,
            "contract": "contracts/TransportWithAttestationWithouOracle.sol:TransportWithAttestationWithoutOracle",
            "label": "requester",
            "offset": 0,
            "slot": "0",
            "type": "t_address"
          },
          {
            "astId": 24,
            "contract": "contracts/TransportWithAttestationWithouOracle.sol:TransportWithAttestationWithoutOracle",
            "label": "serviceProvider",
            "offset": 0,
            "slot": "1",
            "type": "t_address"
          },
          {
            "astId": 26,
            "contract": "contracts/TransportWithAttestationWithouOracle.sol:TransportWithAttestationWithoutOracle",
            "label": "paymentAmount",
            "offset": 0,
            "slot": "2",
            "type": "t_uint256"
          },
          {
            "astId": 28,
            "contract": "contracts/TransportWithAttestationWithouOracle.sol:TransportWithAttestationWithoutOracle",
            "label": "completed",
            "offset": 0,
            "slot": "3",
            "type": "t_bool"
          }
        ],
        "numberOfBytes": "128"
      },
      "t_uint256": {
        "encoding": "inplace",
        "label": "uint256",
        "numberOfBytes": "32"
      }
    }
  }
}